{
  "contractName": "OracleTest",
  "abi": [
    {
      "constant": true,
      "inputs": [],
      "name": "entity",
      "outputs": [
        {
          "name": "",
          "type": "string"
        }
      ],
      "payable": false,
      "stateMutability": "view",
      "type": "function",
      "signature": "0x6cdbbc66"
    },
    {
      "constant": true,
      "inputs": [],
      "name": "response",
      "outputs": [
        {
          "name": "",
          "type": "uint256"
        }
      ],
      "payable": false,
      "stateMutability": "view",
      "type": "function",
      "signature": "0x7a7f01a7"
    },
    {
      "constant": true,
      "inputs": [],
      "name": "id",
      "outputs": [
        {
          "name": "",
          "type": "bytes32"
        }
      ],
      "payable": false,
      "stateMutability": "view",
      "type": "function",
      "signature": "0xaf640d0f"
    },
    {
      "constant": false,
      "inputs": [
        {
          "name": "queryType",
          "type": "string"
        },
        {
          "name": "originator",
          "type": "address"
        },
        {
          "name": "query",
          "type": "string"
        }
      ],
      "name": "queryOracle",
      "outputs": [
        {
          "name": "",
          "type": "bytes32"
        }
      ],
      "payable": false,
      "stateMutability": "nonpayable",
      "type": "function",
      "signature": "0xfa75fa3c"
    },
    {
      "constant": false,
      "inputs": [
        {
          "name": "_response",
          "type": "uint256"
        },
        {
          "name": "_entity",
          "type": "string"
        }
      ],
      "name": "__oracleCallback",
      "outputs": [],
      "payable": false,
      "stateMutability": "nonpayable",
      "type": "function",
      "signature": "0xeec3d929"
    },
    {
      "constant": false,
      "inputs": [],
      "name": "query",
      "outputs": [],
      "payable": false,
      "stateMutability": "nonpayable",
      "type": "function",
      "signature": "0x2c46b205"
    }
  ],
  "bytecode": "0x608060405234801561001057600080fd5b506108a0806100206000396000f300608060405260043610610078576000357c0100000000000000000000000000000000000000000000000000000000900463ffffffff1680632c46b2051461007d5780636cdbbc66146100945780637a7f01a714610124578063af640d0f1461014f578063eec3d92914610182578063fa75fa3c146101f5575b600080fd5b34801561008957600080fd5b506100926102e0565b005b3480156100a057600080fd5b506100a961034c565b6040518080602001828103825283818151815260200191508051906020019080838360005b838110156100e95780820151818401526020810190506100ce565b50505050905090810190601f1680156101165780820380516001836020036101000a031916815260200191505b509250505060405180910390f35b34801561013057600080fd5b506101396103ea565b6040518082815260200191505060405180910390f35b34801561015b57600080fd5b506101646103f0565b60405180826000191660001916815260200191505060405180910390f35b34801561018e57600080fd5b506101f360048036038101908080359060200190929190803590602001908201803590602001908080601f01602080910402602001604051908101604052809392919081815260200183838082843782019150505050505091929192905050506103f6565b005b34801561020157600080fd5b506102c2600480360381019080803590602001908201803590602001908080601f0160208091040260200160405190810160405280939291908181526020018383808284378201915050505050509192919290803573ffffffffffffffffffffffffffffffffffffffff169060200190929190803590602001908201803590602001908080601f016020809104026020016040519081016040528093929190818152602001838380828437820191505050505050919291929050505061050a565b60405180826000191660001916815260200191505060405180910390f35b60608060405190810160405280602481526020017f687474703a2f2f6c6f63616c686f73743a343030302f6d6f6e69746f722f636c81526020017f69656e7400000000000000000000000000000000000000000000000000000000815250905061034981610782565b50565b60018054600181600116156101000203166002900480601f0160208091040260200160405190810160405280929190818152602001828054600181600116156101000203166002900480156103e25780601f106103b7576101008083540402835291602001916103e2565b820191906000526020600020905b8154815290600101906020018083116103c557829003601f168201915b505050505081565b60005481565b60025481565b600073046426e713877cd504e0b1dd586d059f202df45790508073ffffffffffffffffffffffffffffffffffffffff16637e9ba3016040518163ffffffff167c0100000000000000000000000000000000000000000000000000000000028152600401602060405180830381600087803b15801561047357600080fd5b505af1158015610487573d6000803e3d6000fd5b505050506040513d602081101561049d57600080fd5b810190808051906020019092919050505073ffffffffffffffffffffffffffffffffffffffff163373ffffffffffffffffffffffffffffffffffffffff161415156104e757600080fd5b8260008190555081600190805190602001906105049291906107cf565b50505050565b600080600073046426e713877cd504e0b1dd586d059f202df45791508173ffffffffffffffffffffffffffffffffffffffff1663321db4d46040518163ffffffff167c0100000000000000000000000000000000000000000000000000000000028152600401602060405180830381600087803b15801561058a57600080fd5b505af115801561059e573d6000803e3d6000fd5b505050506040513d60208110156105b457600080fd5b810190808051906020019092919050505090508073ffffffffffffffffffffffffffffffffffffffff1663cad58e8a8787876040518463ffffffff167c010000000000000000000000000000000000000000000000000000000002815260040180806020018473ffffffffffffffffffffffffffffffffffffffff1673ffffffffffffffffffffffffffffffffffffffff16815260200180602001838103835286818151815260200191508051906020019080838360005b8381101561068757808201518184015260208101905061066c565b50505050905090810190601f1680156106b45780820380516001836020036101000a031916815260200191505b50838103825284818151815260200191508051906020019080838360005b838110156106ed5780820151818401526020810190506106d2565b50505050905090810190601f16801561071a5780820380516001836020036101000a031916815260200191505b5095505050505050602060405180830381600087803b15801561073c57600080fd5b505af1158015610750573d6000803e3d6000fd5b505050506040513d602081101561076657600080fd5b8101908080519060200190929190505050925050509392505050565b6107c26040805190810160405280600781526020017f6d6f6e69746f7200000000000000000000000000000000000000000000000000815250308361050a565b6002816000191690555050565b828054600181600116156101000203166002900490600052602060002090601f016020900481019282601f1061081057805160ff191683800117855561083e565b8280016001018555821561083e579182015b8281111561083d578251825591602001919060010190610822565b5b50905061084b919061084f565b5090565b61087191905b8082111561086d576000816000905550600101610855565b5090565b905600a165627a7a723058209b940d64fb9e1bc7f15e08e9938934e01aca909625a639d8ee4e6b7c76ca19e00029",
  "source": "pragma solidity ^0.4.21;\n//\n// An example client calling our oracle service\n//\nimport \"./OracleAPI.sol\";\n\ncontract OracleTest is usingOracle {\n  uint public response;\n  string public entity;\n  bytes32 public id;\n\n  function __oracleCallback(uint _response, string _entity) onlyFromOracle public {\n    response = _response;\n    entity = _entity;\n  }\n\n  function query() public {\n    string memory tmp = \"http://localhost:4000/monitor/client\";\n    query(tmp);\n  }\n\n  function query(string _query) internal {\n    id = queryOracle('monitor',address(this),_query);\n  }\n}\n",
  "sourcePath": "/home/manos/Documents/projects/truffletest/ethereum/contracts/OracleTest.sol",
  "compiler": {
    "name": "solc",
    "version": "0.4.25+commit.59dbf8f1.Emscripten.clang"
  },
  "schemaVersion": "3.0.0-beta.1",
  "updatedAt": "2018-11-15T14:46:57.884Z"
}