{
  "contractName": "OracleDispatch",
  "abi": [
    {
      "inputs": [],
      "payable": false,
      "stateMutability": "nonpayable",
      "type": "constructor",
      "signature": "constructor"
    },
    {
      "anonymous": false,
      "inputs": [
        {
          "indexed": false,
          "name": "id",
          "type": "bytes32"
        },
        {
          "indexed": false,
          "name": "recipient",
          "type": "address"
        },
        {
          "indexed": false,
          "name": "queryType",
          "type": "string"
        },
        {
          "indexed": false,
          "name": "originator",
          "type": "address"
        },
        {
          "indexed": false,
          "name": "query",
          "type": "string"
        }
      ],
      "name": "Incoming",
      "type": "event",
      "signature": "0xe38ede876a57d425e6cb51f6f3539f9665473bae90ed3af1ab9b612d7b096358"
    },
    {
      "constant": false,
      "inputs": [
        {
          "name": "_queryType",
          "type": "string"
        },
        {
          "name": "_originator",
          "type": "address"
        },
        {
          "name": "_query",
          "type": "string"
        }
      ],
      "name": "query",
      "outputs": [
        {
          "name": "",
          "type": "bytes32"
        }
      ],
      "payable": false,
      "stateMutability": "nonpayable",
      "type": "function",
      "signature": "0xcad58e8a"
    },
    {
      "constant": false,
      "inputs": [
        {
          "name": "_owner",
          "type": "address"
        }
      ],
      "name": "setOwner",
      "outputs": [],
      "payable": false,
      "stateMutability": "nonpayable",
      "type": "function",
      "signature": "0x13af4035"
    },
    {
      "constant": false,
      "inputs": [],
      "name": "kill",
      "outputs": [],
      "payable": false,
      "stateMutability": "nonpayable",
      "type": "function",
      "signature": "0x41c0e1b5"
    }
  ],
  "bytecode": "0x608060405234801561001057600080fd5b50336000806101000a81548173ffffffffffffffffffffffffffffffffffffffff021916908373ffffffffffffffffffffffffffffffffffffffff16021790555061045c806100606000396000f300608060405260043610610057576000357c0100000000000000000000000000000000000000000000000000000000900463ffffffff16806313af40351461005c57806341c0e1b51461009f578063cad58e8a146100b6575b600080fd5b34801561006857600080fd5b5061009d600480360381019080803573ffffffffffffffffffffffffffffffffffffffff169060200190929190505050610145565b005b3480156100ab57600080fd5b506100b46101e3565b005b3480156100c257600080fd5b50610127600480360381019080803590602001908201803590602001919091929391929390803573ffffffffffffffffffffffffffffffffffffffff169060200190929190803590602001908201803590602001919091929391929390505050610257565b60405180826000191660001916815260200191505060405180910390f35b6000809054906101000a900473ffffffffffffffffffffffffffffffffffffffff1673ffffffffffffffffffffffffffffffffffffffff163373ffffffffffffffffffffffffffffffffffffffff161415156101a057600080fd5b806000806101000a81548173ffffffffffffffffffffffffffffffffffffffff021916908373ffffffffffffffffffffffffffffffffffffffff16021790555050565b6000809054906101000a900473ffffffffffffffffffffffffffffffffffffffff1673ffffffffffffffffffffffffffffffffffffffff163373ffffffffffffffffffffffffffffffffffffffff1614151561023e57600080fd5b3373ffffffffffffffffffffffffffffffffffffffff16ff5b60008043428585336040516020018086815260200185815260200184848082843782019150508273ffffffffffffffffffffffffffffffffffffffff1673ffffffffffffffffffffffffffffffffffffffff166c01000000000000000000000000028152601401955050505050506040516020818303038152906040526040518082805190602001908083835b60208310151561030957805182526020820191506020810190506020830392506102e4565b6001836020036101000a038019825116818451168082178552505050505050905001915050604051809103902090507fe38ede876a57d425e6cb51f6f3539f9665473bae90ed3af1ab9b612d7b096358813389898989896040518088600019166000191681526020018773ffffffffffffffffffffffffffffffffffffffff1673ffffffffffffffffffffffffffffffffffffffff168152602001806020018573ffffffffffffffffffffffffffffffffffffffff1673ffffffffffffffffffffffffffffffffffffffff168152602001806020018381038352888882818152602001925080828437820191505083810382528585828181526020019250808284378201915050995050505050505050505060405180910390a180915050959450505050505600a165627a7a72305820878aade97894e5bf96bc93c181228a9f0f2d42d02bae261da13d350837a450bf0029",
  "source": "pragma solidity ^0.4.21;\n/*\nBased on https://github.com/axic/tinyoracle\n*/\n\n//\n// This is where the magic happens\n//\n// This contract will receive the actual query from the caller\n// contract. Assign a unique (well, sort of) identifier to each\n// incoming request, and emit an event our RPC client is listening\n// for.\n//\ncontract OracleDispatch {\n  event Incoming(bytes32 id, address recipient, string queryType, address originator, string query);\n\n  function query(string _queryType, address _originator, string _query) external returns (bytes32) {\n    bytes32 queryId;\n    queryId = keccak256(abi.encodePacked(block.number, now, _query, msg.sender));\n    emit Incoming(queryId, msg.sender, _queryType, _originator, _query);\n    return queryId;\n  }\n\n  // The basic housekeeping\n\n  address owner;\n\n  modifier owneronly { require(msg.sender == owner); _; }\n\n  function setOwner(address _owner) public owneronly {\n    owner = _owner;\n  }\n\n  constructor() public {\n    owner = msg.sender;\n  }\n\n  function kill() public owneronly {\n    selfdestruct(msg.sender);\n  }\n}\n",
  "sourcePath": "/home/manos/Documents/projects/truffletest/ethereum/contracts/OracleDispatch.sol",
  "compiler": {
    "name": "solc",
    "version": "0.4.25+commit.59dbf8f1.Emscripten.clang"
  },
  "schemaVersion": "3.0.0-beta.1",
  "updatedAt": "2018-11-15T14:39:15.798Z"
}